{
  "_format": "hh-sol-artifact-1",
  "contractName": "Staking",
  "sourceName": "contracts/Staking.sol",
  "abi": [
    {
      "inputs": [],
      "stateMutability": "payable",
      "type": "constructor"
    },
    {
      "anonymous": false,
      "inputs": [
        {
          "indexed": true,
          "internalType": "address",
          "name": "from",
          "type": "address"
        },
        {
          "indexed": true,
          "internalType": "uint256",
          "name": "lockPeriod",
          "type": "uint256"
        },
        {
          "indexed": false,
          "internalType": "uint256",
          "name": "amount",
          "type": "uint256"
        }
      ],
      "name": "TokenStaked",
      "type": "event"
    },
    {
      "inputs": [
        {
          "internalType": "address",
          "name": "",
          "type": "address"
        },
        {
          "internalType": "uint256",
          "name": "",
          "type": "uint256"
        }
      ],
      "name": "assetIdsByAddress",
      "outputs": [
        {
          "internalType": "uint256",
          "name": "",
          "type": "uint256"
        }
      ],
      "stateMutability": "view",
      "type": "function"
    },
    {
      "inputs": [
        {
          "internalType": "uint256",
          "name": "numDays",
          "type": "uint256"
        },
        {
          "internalType": "uint256",
          "name": "apy",
          "type": "uint256"
        }
      ],
      "name": "changeStakingDuration",
      "outputs": [],
      "stateMutability": "nonpayable",
      "type": "function"
    },
    {
      "inputs": [
        {
          "internalType": "uint256",
          "name": "positionId",
          "type": "uint256"
        },
        {
          "internalType": "uint256",
          "name": "newUnlockDate",
          "type": "uint256"
        }
      ],
      "name": "changeUnlockDate",
      "outputs": [],
      "stateMutability": "nonpayable",
      "type": "function"
    },
    {
      "inputs": [
        {
          "internalType": "uint256",
          "name": "positionId",
          "type": "uint256"
        }
      ],
      "name": "closePosition",
      "outputs": [],
      "stateMutability": "nonpayable",
      "type": "function"
    },
    {
      "inputs": [],
      "name": "currentPositionId",
      "outputs": [
        {
          "internalType": "uint256",
          "name": "",
          "type": "uint256"
        }
      ],
      "stateMutability": "view",
      "type": "function"
    },
    {
      "inputs": [
        {
          "internalType": "uint256",
          "name": "numDays",
          "type": "uint256"
        }
      ],
      "name": "getInterestRate",
      "outputs": [
        {
          "internalType": "uint256",
          "name": "",
          "type": "uint256"
        }
      ],
      "stateMutability": "view",
      "type": "function"
    },
    {
      "inputs": [
        {
          "internalType": "uint256",
          "name": "positionId",
          "type": "uint256"
        }
      ],
      "name": "getPositionById",
      "outputs": [
        {
          "components": [
            {
              "internalType": "uint256",
              "name": "positionId",
              "type": "uint256"
            },
            {
              "internalType": "address",
              "name": "walletAddress",
              "type": "address"
            },
            {
              "internalType": "uint256",
              "name": "createdDate",
              "type": "uint256"
            },
            {
              "internalType": "uint256",
              "name": "unlockDate",
              "type": "uint256"
            },
            {
              "internalType": "uint256",
              "name": "percentInterest",
              "type": "uint256"
            },
            {
              "internalType": "uint256",
              "name": "weiStaked",
              "type": "uint256"
            },
            {
              "internalType": "uint256",
              "name": "weiInterest",
              "type": "uint256"
            },
            {
              "internalType": "bool",
              "name": "open",
              "type": "bool"
            }
          ],
          "internalType": "struct Staking.Asset",
          "name": "",
          "type": "tuple"
        }
      ],
      "stateMutability": "view",
      "type": "function"
    },
    {
      "inputs": [
        {
          "internalType": "address",
          "name": "walletAddress",
          "type": "address"
        }
      ],
      "name": "getPositionIdsForAddress",
      "outputs": [
        {
          "internalType": "uint256[]",
          "name": "",
          "type": "uint256[]"
        }
      ],
      "stateMutability": "view",
      "type": "function"
    },
    {
      "inputs": [],
      "name": "getStakingDurations",
      "outputs": [
        {
          "internalType": "uint256[]",
          "name": "",
          "type": "uint256[]"
        }
      ],
      "stateMutability": "view",
      "type": "function"
    },
    {
      "inputs": [],
      "name": "owner",
      "outputs": [
        {
          "internalType": "address",
          "name": "",
          "type": "address"
        }
      ],
      "stateMutability": "view",
      "type": "function"
    },
    {
      "inputs": [
        {
          "internalType": "uint256",
          "name": "",
          "type": "uint256"
        }
      ],
      "name": "plans",
      "outputs": [
        {
          "internalType": "uint256",
          "name": "",
          "type": "uint256"
        }
      ],
      "stateMutability": "view",
      "type": "function"
    },
    {
      "inputs": [
        {
          "internalType": "uint256",
          "name": "",
          "type": "uint256"
        }
      ],
      "name": "positions",
      "outputs": [
        {
          "internalType": "uint256",
          "name": "positionId",
          "type": "uint256"
        },
        {
          "internalType": "address",
          "name": "walletAddress",
          "type": "address"
        },
        {
          "internalType": "uint256",
          "name": "createdDate",
          "type": "uint256"
        },
        {
          "internalType": "uint256",
          "name": "unlockDate",
          "type": "uint256"
        },
        {
          "internalType": "uint256",
          "name": "percentInterest",
          "type": "uint256"
        },
        {
          "internalType": "uint256",
          "name": "weiStaked",
          "type": "uint256"
        },
        {
          "internalType": "uint256",
          "name": "weiInterest",
          "type": "uint256"
        },
        {
          "internalType": "bool",
          "name": "open",
          "type": "bool"
        }
      ],
      "stateMutability": "view",
      "type": "function"
    },
    {
      "inputs": [
        {
          "internalType": "uint256",
          "name": "numDays",
          "type": "uint256"
        }
      ],
      "name": "stakeEther",
      "outputs": [],
      "stateMutability": "payable",
      "type": "function"
    },
    {
      "inputs": [
        {
          "internalType": "uint256",
          "name": "",
          "type": "uint256"
        }
      ],
      "name": "stakingLengths",
      "outputs": [
        {
          "internalType": "uint256",
          "name": "",
          "type": "uint256"
        }
      ],
      "stateMutability": "view",
      "type": "function"
    }
  ],
  "bytecode": "0x6080604052336000806101000a81548173ffffffffffffffffffffffffffffffffffffffff021916908373ffffffffffffffffffffffffffffffffffffffff16021790555060006009819055506102bc600c6000601e8152602001908152602001600020819055506103e8600c6000605a8152602001908152602001600020819055506104b0600c600060b4815260200190815260200160002081905550600d601e9080600181540180825580915050600190039060005260206000200160009091909190915055600d605a9080600181540180825580915050600190039060005260206000200160009091909190915055600d60b490806001815401808255809150506001900390600052602060002001600090919091909150556114e48061012a6000396000f3fe6080604052600436106100dd5760003560e01c8063a126d6011161007f578063c4c2c35311610059578063c4c2c353146102ff578063c7c9d0551461032a578063dd17025914610353578063e4f9084114610390576100dd565b8063a126d6011461025c578063b162061614610285578063b838ec86146102c2576100dd565b806340d98a44116100bb57806340d98a441461017357806362c9f904146101b05780638da5cb5b146101ed57806399fbab8814610218576100dd565b80630c196a74146100e25780631131c8cd1461011f578063284a41ce1461014a575b600080fd5b3480156100ee57600080fd5b5061010960048036038101906101049190610d29565b6103ac565b6040516101169190610d65565b60405180910390f35b34801561012b57600080fd5b506101346103c9565b6040516101419190610d65565b60405180910390f35b34801561015657600080fd5b50610171600480360381019061016c9190610d80565b6103cf565b005b34801561017f57600080fd5b5061019a60048036038101906101959190610e1e565b6104a2565b6040516101a79190610f09565b60405180910390f35b3480156101bc57600080fd5b506101d760048036038101906101d29190610f2b565b610539565b6040516101e49190610d65565b60405180910390f35b3480156101f957600080fd5b5061020261056a565b60405161020f9190610f7a565b60405180910390f35b34801561022457600080fd5b5061023f600480360381019061023a9190610d29565b61058e565b604051610253989796959493929190610fb0565b60405180910390f35b34801561026857600080fd5b50610283600480360381019061027e9190610d29565b610603565b005b34801561029157600080fd5b506102ac60048036038101906102a79190610d29565b6107d0565b6040516102b99190610d65565b60405180910390f35b3480156102ce57600080fd5b506102e960048036038101906102e49190610d29565b6107e8565b6040516102f691906110ee565b60405180910390f35b34801561030b57600080fd5b506103146108c3565b6040516103219190610f09565b60405180910390f35b34801561033657600080fd5b50610351600480360381019061034c9190610d80565b61091b565b005b34801561035f57600080fd5b5061037a60048036038101906103759190610d29565b6109c8565b6040516103879190610d65565b60405180910390f35b6103aa60048036038101906103a59190610d29565b6109ec565b005b6000600c6000838152602001908152602001600020549050919050565b60095481565b3373ffffffffffffffffffffffffffffffffffffffff1660008054906101000a900473ffffffffffffffffffffffffffffffffffffffff1673ffffffffffffffffffffffffffffffffffffffff161461045d576040517f08c379a00000000000000000000000000000000000000000000000000000000081526004016104549061118d565b60405180910390fd5b80600c600084815260200190815260200160002081905550600d8290806001815401808255809150506001900390600052602060002001600090919091909150555050565b6060600b60008373ffffffffffffffffffffffffffffffffffffffff1673ffffffffffffffffffffffffffffffffffffffff16815260200190815260200160002080548060200260200160405190810160405280929190818152602001828054801561052d57602002820191906000526020600020905b815481526020019060010190808311610519575b50505050509050919050565b600b602052816000526040600020818154811061055557600080fd5b90600052602060002001600091509150505481565b60008054906101000a900473ffffffffffffffffffffffffffffffffffffffff1681565b600a6020528060005260406000206000915090508060000154908060010160009054906101000a900473ffffffffffffffffffffffffffffffffffffffff16908060020154908060030154908060040154908060050154908060060154908060070160009054906101000a900460ff16905088565b3373ffffffffffffffffffffffffffffffffffffffff16600a600083815260200190815260200160002060010160009054906101000a900473ffffffffffffffffffffffffffffffffffffffff1673ffffffffffffffffffffffffffffffffffffffff16146106a7576040517f08c379a000000000000000000000000000000000000000000000000000000000815260040161069e9061121f565b60405180910390fd5b60011515600a600083815260200190815260200160002060070160009054906101000a900460ff16151514610711576040517f08c379a00000000000000000000000000000000000000000000000000000000081526004016107089061128b565b60405180910390fd5b6000600a600083815260200190815260200160002060070160006101000a81548160ff021916908315150217905550600a6000828152602001908152602001600020600301544211156107a0576000600a600083815260200190815260200160002060060154600a60008481526020019081526020016000206005015461079891906112da565b9050506107cd565b3373ffffffffffffffffffffffffffffffffffffffff16600a600083815260200190815260200160002050505b50565b600c6020528060005260406000206000915090505481565b6107f0610c91565b600a600083815260200190815260200160002060405180610100016040529081600082015481526020016001820160009054906101000a900473ffffffffffffffffffffffffffffffffffffffff1673ffffffffffffffffffffffffffffffffffffffff1673ffffffffffffffffffffffffffffffffffffffff16815260200160028201548152602001600382015481526020016004820154815260200160058201548152602001600682015481526020016007820160009054906101000a900460ff1615151515815250509050919050565b6060600d80548060200260200160405190810160405280929190818152602001828054801561091157602002820191906000526020600020905b8154815260200190600101908083116108fd575b5050505050905090565b3373ffffffffffffffffffffffffffffffffffffffff1660008054906101000a900473ffffffffffffffffffffffffffffffffffffffff1673ffffffffffffffffffffffffffffffffffffffff16146109a9576040517f08c379a00000000000000000000000000000000000000000000000000000000081526004016109a090611380565b60405180910390fd5b80600a6000848152602001908152602001600020600301819055505050565b600d81815481106109d857600080fd5b906000526020600020016000915090505481565b6000600c60008381526020019081526020016000205411610a42576040517f08c379a0000000000000000000000000000000000000000000000000000000008152600401610a39906113ec565b60405180910390fd5b60405180610100016040528060095481526020013373ffffffffffffffffffffffffffffffffffffffff1681526020014281526020016201518083610a87919061140c565b42610a9291906112da565b8152602001600c6000848152602001908152602001600020548152602001348152602001610ad3600c60008581526020019081526020016000205434610c6e565b815260200160011515815250600a600060095481526020019081526020016000206000820151816000015560208201518160010160006101000a81548173ffffffffffffffffffffffffffffffffffffffff021916908373ffffffffffffffffffffffffffffffffffffffff16021790555060408201518160020155606082015181600301556080820151816004015560a0820151816005015560c0820151816006015560e08201518160070160006101000a81548160ff021916908315150217905550905050600b60003373ffffffffffffffffffffffffffffffffffffffff1673ffffffffffffffffffffffffffffffffffffffff1681526020019081526020016000206009549080600181540180825580915050600190039060005260206000200160009091909190915055600160096000828254610c1591906112da565b92505081905550803373ffffffffffffffffffffffffffffffffffffffff167f6173e4d2d9dd52aae0ed37afed3adcf924a490639b759ca93d32dc43366c17d234604051610c639190610d65565b60405180910390a350565b60006127108284610c7f919061140c565b610c89919061147d565b905092915050565b60405180610100016040528060008152602001600073ffffffffffffffffffffffffffffffffffffffff16815260200160008152602001600081526020016000815260200160008152602001600081526020016000151581525090565b600080fd5b6000819050919050565b610d0681610cf3565b8114610d1157600080fd5b50565b600081359050610d2381610cfd565b92915050565b600060208284031215610d3f57610d3e610cee565b5b6000610d4d84828501610d14565b91505092915050565b610d5f81610cf3565b82525050565b6000602082019050610d7a6000830184610d56565b92915050565b60008060408385031215610d9757610d96610cee565b5b6000610da585828601610d14565b9250506020610db685828601610d14565b9150509250929050565b600073ffffffffffffffffffffffffffffffffffffffff82169050919050565b6000610deb82610dc0565b9050919050565b610dfb81610de0565b8114610e0657600080fd5b50565b600081359050610e1881610df2565b92915050565b600060208284031215610e3457610e33610cee565b5b6000610e4284828501610e09565b91505092915050565b600081519050919050565b600082825260208201905092915050565b6000819050602082019050919050565b610e8081610cf3565b82525050565b6000610e928383610e77565b60208301905092915050565b6000602082019050919050565b6000610eb682610e4b565b610ec08185610e56565b9350610ecb83610e67565b8060005b83811015610efc578151610ee38882610e86565b9750610eee83610e9e565b925050600181019050610ecf565b5085935050505092915050565b60006020820190508181036000830152610f238184610eab565b905092915050565b60008060408385031215610f4257610f41610cee565b5b6000610f5085828601610e09565b9250506020610f6185828601610d14565b9150509250929050565b610f7481610de0565b82525050565b6000602082019050610f8f6000830184610f6b565b92915050565b60008115159050919050565b610faa81610f95565b82525050565b600061010082019050610fc6600083018b610d56565b610fd3602083018a610f6b565b610fe06040830189610d56565b610fed6060830188610d56565b610ffa6080830187610d56565b61100760a0830186610d56565b61101460c0830185610d56565b61102160e0830184610fa1565b9998505050505050505050565b61103781610de0565b82525050565b61104681610f95565b82525050565b610100820160008201516110636000850182610e77565b506020820151611076602085018261102e565b5060408201516110896040850182610e77565b50606082015161109c6060850182610e77565b5060808201516110af6080850182610e77565b5060a08201516110c260a0850182610e77565b5060c08201516110d560c0850182610e77565b5060e08201516110e860e085018261103d565b50505050565b600061010082019050611104600083018461104c565b92915050565b600082825260208201905092915050565b7f4f6e6c79206f776e6572206d6179206d6f64696679207374616b696e6720706560008201527f72696f6473000000000000000000000000000000000000000000000000000000602082015250565b600061117760258361110a565b91506111828261111b565b604082019050919050565b600060208201905081810360008301526111a68161116a565b9050919050565b7f4f6e6c792074686520706f736974696f6e2063726561746f72206d6179206d6f60008201527f6469667920706f736974696f6e00000000000000000000000000000000000000602082015250565b6000611209602d8361110a565b9150611214826111ad565b604082019050919050565b60006020820190508181036000830152611238816111fc565b9050919050565b7f417373657420697320616c726561647920636c6f736564000000000000000000600082015250565b600061127560178361110a565b91506112808261123f565b602082019050919050565b600060208201905081810360008301526112a481611268565b9050919050565b7f4e487b7100000000000000000000000000000000000000000000000000000000600052601160045260246000fd5b60006112e582610cf3565b91506112f083610cf3565b9250828201905080821115611308576113076112ab565b5b92915050565b7f4f6e6c79206f776e6572206d6179206d6f6469667920756e6c6f636b2064617460008201527f6573000000000000000000000000000000000000000000000000000000000000602082015250565b600061136a60228361110a565b91506113758261130e565b604082019050919050565b600060208201905081810360008301526113998161135d565b9050919050565b7f4d617070696e67206e6f7420666f756e64000000000000000000000000000000600082015250565b60006113d660118361110a565b91506113e1826113a0565b602082019050919050565b60006020820190508181036000830152611405816113c9565b9050919050565b600061141782610cf3565b915061142283610cf3565b925082820261143081610cf3565b91508282048414831517611447576114466112ab565b5b5092915050565b7f4e487b7100000000000000000000000000000000000000000000000000000000600052601260045260246000fd5b600061148882610cf3565b915061149383610cf3565b9250826114a3576114a261144e565b5b82820490509291505056fea2646970667358221220509bb535aff8f5d8b2726b7289ae3637b021a7b3772fa155469c12391352839564736f6c63430008110033",
  "linkReferences": {},
  "deployedLinkReferences": {}
}